S0150000456A656D706C6F5F4C3239384E2E73726563A7
S11300000C9434000C943E000C943E000C943E007E
S11300100C943E000C943E000C943E000C943E0064
S11300200C943E000C943E000C943E000C943E0054
S11300300C943E000C943E000C943E000C943E0044
S11300400C943E000C943E000C943E000C943E0034
S11300500C943E000C943E000C943E000C943E0024
S11300600C943E000C943E0011241FBECFEFD8E048
S1130070DEBFCDBF0E9474000C94AD000C94000050
S11300808AB18C608AB984B1826084B98BB18B7F68
S11300908BB98BB1877F8BB985B18D7F85B9089575
S11300A0E0E8F0E0808181688083E1E8F0E080812D
S11300B08A6080831092890010928800089590E0ED
S11300C09093890080938800611107C08BB184608C
S11300D08BB98BB1877F8BB908958BB18B7F8BB92B
S11300E08BB188608BB908950E9440000E94500033
S11300F060E080E80E945F002FEF87EA91E62150DC
S113010080409040E1F700C0000060E080E00E9481
S11301105F002FEF83ED90E3215080409040E1F7A2
S113012000C0000061E08FEF0E945F002FEF87EABC
S113013091E6215080409040E1F700C0000061E06A
S113014080E00E945F002FEF83ED90E32150804018
S11101509040E1F700C00000CBCFF894FFCF41
S9030000FC
